:020000040800F2
:100000007804002049010008510C0008990A0008F2
:100010004D0C000809080008B71E00080000000089
:10002000000000000000000000000000A10F000818
:100030003508000800000000F10C0008311100082C
:100040006301000863010008630100086301000800
:1000500063010008630100086301000863010008F0
:1000600063010008630100086301000863010008E0
:1000700063010008630100086301000863010008D0
:1000800063010008630100086301000863010008C0
:1000900063010008630100086301000863010008B0
:1000A00063010008630100086301000863010008A0
:1000B00063010008D5130008ED1300086301000870
:1000C0006301000863010008630100086301000880
:1000D00063010008B91C00086301000863010008FF
:1000E0006301000863010008630100086301000860
:1000F0006301000863010008630100086301000850
:10010000630100086301000863010008630100083F
:10011000630100086301000805140008630100087A
:10012000630100086301000863010008630100081F
:10013000DFF810D000F0DAFA004800473921000853
:10014000AFF3008078040020064880470648004747
:10015000FEE7FEE7FEE7FEE7FEE7FEE7FEE7FEE777
:10016000FEE7FEE73511000831010008F0B480EA2F
:100170000102D40F4200B2EB410F02D20246084600
:1001800011464A0042D0C30DDDB2C1F3C752AD1AC9
:10019000202D35DAC1F3160141F4000204B15242B8
:1001A000C5F1200602FA06F12A411044B3EBD05FF4
:1001B00023D0C4B1012DA0EBC35009DCF0BC4FF03B
:1001C000004202EAC352DBB200F5000000F002BABE
:1001D000400000F1807000EBC350A0F1807040EA55
:1001E000D170490009E0490841EAC071A0EBC35051
:1001F00000F50000400800EBC350F0BC00F0E1B98E
:100200006142012202EB4101001BF6E7F0BC70479E
:1002100081F00041AAE780F00040A7E780EA0102F0
:1002200010B502F00043400022D04A001FD0010E5A
:1002300001EB1261C0F35600C2F3560240F4000015
:1002400042F40002A0FB022000047F39140400D015
:10025000401C50EA124001D44000491EC2B20C06B4
:1002600004EBD010401C4008802A02D003E000209C
:1002700010BD20F00100002900DA0020184310BD55
:100280002DE9FE4F804681EA0300C00F0C46009026
:1002900021F0004123F00045B8EB0200A94105D24E
:1002A0004046214690461C460B46024623F000403D
:1002B000104347D0270DC7F30A00C3F30A51029039
:1002C000401A019040286BDAC3F3130040F4801BFE
:1002D0000098924620B10023D2EB030A63EB0B0B8C
:1002E00001985946C0F14002504600F049F90646CF
:1002F0000D4650465946019A00F051F910EB08009E
:100300006141002487EA115284EAE7731A4340D01E
:10031000009A62B3019A012A4FEA075215DC001BCA
:1003200061EB02014FF0004202EA0752CDE90042C0
:10033000001C41F5801132462B4600F088F903B0CD
:10034000BDE8F08F40462146F9E7001B61EB020152
:10035000001C41F5801300185B412018A2F500171E
:1003600047EB030140EAD570B6196D4111E06D0805
:100370004FEA360645EAC0754FEA0752001B61EBAB
:100380000201001C41F5801149084FEA30000019B4
:10039000514132462B4603B0BDE8F04F00F048B95A
:1003A0000098012240000023D0EB020263EBE073CF
:1003B000009821464FEAE074B8EB000061EB0401BD
:1003C000E9E783F000435BE781F0004158E72DE95E
:1003D000FE4F81EA030404F0004421F00041009440
:1003E0004FF0000B23F0004350EA01045ED052EAC4
:1003F00003045BD0C3F30A54C1F30A552C44A4F29E
:10040000F3340194A0FB0254C1F3130141F48011B1
:10041000C3F3130343F4801301FB024400FB034EB8
:10042000840A970A44EA815447EA8357A4FB076881
:1004300002958D0A05FB07854FEA932C04FB0C54AB
:100440002705029D4FEA065847EA1637B5EB08051F
:100450006EEB070C870E920E47EA811742EA831271
:10046000A7FB0201B6EB0B0164EB00042B0D43EA82
:100470000C335E1844EB1C50DA465146E7FB020190
:10048000C5F313044FEA0B3343EA14534FEA043223
:10049000019C43EA0603A4F10C040294009CCDE9FC
:1004A00000B400F0D4F803B0BDE8F08F002001469E
:1004B000F9E7C10F80EAE0700844CA0796230021DB
:1004C00000F088B800F0004220F00040C10DC0F3F9
:1004D000160040F400007F2901DA002070479629B9
:1004E00003DCC1F19601C84001E096398840002A3A
:1004F000F4D04042704700F0004230F000400AD093
:10050000C10D01F56071C0F3160042EA0151C20845
:1005100040071143704700200146704701F0004337
:1005200030B421F0004150EA010206D00A0DA2F5D4
:100530006072C1F31301002A02DC30BC0020704756
:10054000440F44EAC104C100E01830BC00EBC250C3
:1005500000F037B830B50B460146002020220124B8
:1005600009E021FA02F59D4205D303FA02F5491B81
:1005700004FA02F52844151EA2F10102F1DC30BD97
:10058000202A04DB203A00FA02F100207047914053
:10059000C2F1200320FA03F3194390407047202A48
:1005A00006DBCB17203A41FA02F043EAE07306E09B
:1005B00041FA02F3D040C2F12002914008431946AB
:1005C00070470029A8BF7047401C490008BF20F0B1
:1005D0000100704710B4B0FA80FC00FA0CF050EA49
:1005E000010404BF10BC704749B1CCF1200421FACA
:1005F00004F411FA0CF118BF012121430843A3EBC5
:100600000C01CB1D4FEA00614FEA102042BF0020D1
:1006100010BC704700EBC35010440029A4BF10BCAD
:100620007047401C490008BF20F0010010BC704713
:1006300010B5141E73F1000408DA401C41F10001EA
:1006400092185B411A4301D120F0010010BD2DE941
:10065000F04D92469B4611B1B1FA81F202E0B0FA38
:1006600080F220329046FFF78BFF04460F4640EAA7
:100670000A0041EA0B0153465A46084313D011467B
:1006800053EA010019D0C8F14002504600F040F88A
:1006900005460E46504659464246FFF771FF08434D
:1006A00005D0012004E020463946BDE8F08D002049
:1006B000054346EAE0762C4337430A986305E40A8B
:1006C000A0EB08000022FD0A44EA47540A3002D594
:1006D00000200146E9E7010510196941DDE90845F7
:1006E00000196941BDE8F04DA2E70000064C074D36
:1006F00006E0E06840F0010394E8070098471034F2
:10070000AC42F6D3FFF718FDDC220008FC220008FB
:10071000202A04DB203A21FA02F00021704721FA56
:1007200002F3D040C2F120029140084319467047BD
:1007300008B50121102000F08DFB4FF47070ADF86A
:10074000000018208DF8030003208DF80200694690
:10075000014800F00DF908BD0010014030B587B028
:1007600005460C460121480300F074FB254800F0C3
:100770002FFF681E80B2ADF81400ADF810400020C5
:10078000ADF81600ADF8120004A91E4801F038FAC1
:100790006020ADF800000120ADF802000020ADF8A7
:1007A0000600ADF808006946164801F09FF8694652
:1007B000144801F0F1F86946124801F04DF9694614
:1007C000104801F0A3F901210E4800F0F1FE0821C4
:1007D0000C4801F0D7F808210A4801F02FF9082148
:1007E000084801F089F90821064801F0CDF90121F6
:1007F000044800F0BFFE0121024800F0CDFE07B022
:1008000030BD00000034014000BFFEE70146072371
:1008100023EA01021202054B18684FF6FF03184045
:10082000034B18431043014B186070470CED00E078
:100830000000FA057047000000B587B001210220D2
:1008400000F0E8FA0121042000F004FBC020ADF81C
:10085000000004208DF8030069461C4800F088F869
:1008600004A801F01FFA0020ADF810004FF6FF7049
:10087000ADF814000020ADF81600ADF8120004A980
:10088000134801F0BDF900231A460321104800F077
:1008900093FF01A801F018F80A20ADF80C0001A997
:1008A0000B4800F0BBFF0121094800F06FFE012258
:1008B0001146074801F011F80021054801F071F9CF
:1008C0000121034800F068FE07B000BD00080140A8
:1008D0000004004000B587B00121042000F09AFA1E
:1008E0000121082000F0B6FAC020ADF80000042075
:1008F0008DF8030069461C4800F03AF804A801F09E
:10090000D1F90020ADF810004FF6FF70ADF81400DB
:100910000020ADF81600ADF8120004A9134801F04C
:100920006FF900231A460321104800F045FF01A883
:1009300000F0CAFF0A20ADF80C0001A90B4800F036
:100940006DFF0121094800F021FE012211460748F0
:1009500000F0C3FF0021054801F023F901210348FD
:1009600000F01AFE07B000BD000C01400008004076
:100970002DE9F04102460025002600200023002436
:10098000002791F803C00CF00F0591F803C00CF09C
:10099000100CBCF1000F03D091F802C04CEA050521
:1009A00091F800C0BCF1000F31D0146800202BE09A
:1009B0004FF0010C0CFA00F3B1F800C00CEA03068A
:1009C0009E4220D183004FF00F0C0CFA03F7BC437A
:1009D00005FA03FC4CEA040491F803C0BCF1280FAB
:1009E00006D14FF0010C0CFA00FCC2F814C00AE06A
:1009F00091F803C0BCF1480F05D14FF0010C0CFA7F
:100A000000FCC2F810C0401C0828D1D31460B1F813
:100A100000C0BCF1FF0F34DD546800202EE000F16F
:100A2000080C4FF0010808FA0CF3B1F800C00CEA0A
:100A300003069E4221D183004FF00F0C0CFA03F7FE
:100A4000BC4305FA03FC4CEA040491F803C0BCF172
:100A5000280F05D100F1080C08FA0CF8C2F8148030
:100A600091F803C0BCF1480F07D100F1080C4FF01A
:100A7000010808FA0CF8C2F81080401C0828CED3F0
:100A80005460BDE8F0810246002093680B400BB132
:100A9000012000E00020704700BFFEE72DE9F05F75
:100AA00004460D46281BFFF704FD2449086024482E
:100AB00001684FF08040FFF7B1FB83461F48016893
:100AC0005846FFF7A8FB82461E4801685046FFF7CC
:100AD0004DFB81464FF08041FFF7A0FB07461748CA
:100AE00001684FF07E50FFF799FB82461448016879
:100AF00012480068FFF78CFB83461349FFF78EFB13
:100B000081465146FFF732FB80463946FFF72EFB00
:100B100006460E4801683046FFF728FB0B4908607F
:100B200006480068064908600846006805490860EC
:100B300006480068FFF7C6FCBDE8F09F640000208F
:100B40006C000020700000200000A0416800002020
:100B500008B50121082000F07DF90820ADF800005B
:100B600010208DF8030002208DF80200694603482A
:100B7000FFF7FEFE00200249086008BD000C01409E
:100B80008C81214201464906084A926942F00102DD
:100B9000064B9A61064A526822F0E062044B5A60A2
:100BA0001A4652680A435A6070470000001002401B
:100BB0000000014010B500F001F810BD08B501219A
:100BC000042000F047F94FF48070ADF80000482091
:100BD0008DF8030069460248FFF7CAFE08BD000011
:100BE0000008014010B5044600F022F801280BD19E
:100BF000601C0D490988B1EB400F0ADA0A480088E9
:100C0000401C0949088004E0002007490880074982
:100C1000088005480088022803D101200349088084
:100C200010BD0020FCE70000420000204000002032
:100C300010B54FF480710448FFF725FF08B9012073
:100C400010BD0020FCE700000008014000BFFEE7E7
:100C50007047000070B5002100230F22C47804B350
:100C6000154C246804F4E064C4F5E064210AC1F181
:100C70000403CA40447804FA03F184781440214301
:100C800009010E4C0678A155047804F01F050124D3
:100C9000AC4005786D11AD0005F1E025C5F80041C7
:100CA00009E0047804F01F050124AC40044D0678E7
:100CB000761145F8264070BD0CED00E000E400E040
:100CC00080E100E00146002902DD01F21450704786
:100CD000002902DAA1F21450F9E70846F7E70346C3
:100CE0001846884200DD0846904200DA10467047F8
:100CF000704700002DE9F04F87B004468946A9EB04
:100D00000400FFF7D6FB39490860084601683848F7
:100D10000068FFF72BFA3649086008460068FFF7BD
:100D2000D1FB06463348B0F9000042423148B0F9E1
:100D300000103046FFF7D3FF0546FFF7BAFB2C49FA
:100D400008602D48016829480068FFF761FA0746E6
:100D5000FFF7D1FB05460022284BFFF738FBCDE912
:100D6000020123480068FFF7C6FB0746244A254BCB
:100D7000FFF72DFB05460E461C480068FFF7BBFB3E
:100D80000746214A214BFFF722FB82462A4633467B
:100D9000FFF776FACDE90001DDE90223FFF770FAEB
:100DA000CDE90401FFF7BAFB194908600F48006854
:100DB0001149086016480068FFF784FB06460D4895
:100DC000B0F9000042420B48B0F900103046FFF77E
:100DD00086FF0546FFF76DFB0D4908600846006871
:100DE000FFF770FB07B0BDE8F08F00005400002053
:100DF0005C0000200A000020600000200000E03FAE
:100E0000FCA9F1D24D62503F9A9999999999E93F7D
:100E10005800002029B1064AD2690243044BDA6126
:100E200004E0034AD2698243014BDA617047000053
:100E30000010024029B1064A12690243044B1A61AC
:100E400004E0034A12698243014B1A6170470000B3
:100E50000010024029B1064A92690243044B9A618C
:100E600004E0034A92698243014B9A617047000093
:100E70000010024029B1064AD2680243044BDA60EE
:100E800004E0034AD2688243014BDA6070470000F5
:100E90000010024030B500210022002400232D4D17
:100EA0006D6805F00C0121B1042905D0082923D172
:100EB00005E0294D056022E0274D05601FE0254D26
:100EC0006D6805F47012234D6D6805F480340225B9
:100ED00005EB92421CB9214D554305600BE01D4DB9
:100EE0006D6805F400351DB11C4D5543056002E0E9
:100EF000194D5543056002E0174D056000BF00BF66
:100F0000144D6D6805F0F0010909154D6B5C05681D
:100F1000DD4045600F4D6D6805F4E061090A104D34
:100F20006B5C4568DD4085600A4D6D6805F4605175
:100F3000C90A0B4D6B5C4568DD40C560054D6D68A9
:100F400005F44041890B074D6B5CC568B5FBF3F5B3
:100F5000056130BD0010024000127A0000093D001A
:100F60002400002034000020014611B101290ED1D7
:100F700006E0094A128810B20022074B1A8008E0E6
:100F8000064A128810B20022044B1A8001E00020A9
:100F900000BF00BF70470000240400402408004048
:100FA000704710B500F002F810BD00000CB500202D
:100FB000019000903348006840F480303149086067
:100FC00000BF3048006800F4003000900198401CD9
:100FD0000190009818B90198B0F5A06FF1D1294897
:100FE000006800F4003010B10120009001E0002002
:100FF00000900098012843D12348006840F0100079
:10100000214908600846006820F00300086008468F
:10101000006840F0020008601A48406819494860BA
:101020000846406848600846406840F48060486070
:101030000846406820F47C1048600846406840F448
:10104000E81048600846006840F08070086000BF03
:101050000C48006800F000700028F9D0094840688A
:1010600020F00300074948600846406840F002004D
:10107000486000BF0348406800F00C000828F9D120
:101080000CBD0000001002400020024000B50346E5
:101090000A4623B900201B490880091D08802AB987
:1010A0000020184908310880091D0880002B09DD3F
:1010B000184601F0BBF81349091D08800020091FDC
:1010C000088008E000200F49091D0880184601F03B
:1010D000ADF80C490880002A09DD104601F0A6F899
:1010E0000849083108800020091D088009E0002017
:1010F000044908310880104601F098F801490C3184
:10110000088000BD34340140042808D14FF0E021AC
:10111000096941F004014FF0E022116107E04FF04E
:10112000E021096921F004014FF0E02211617047CC
:101130007047000010B51348006840F001001149E5
:10114000086008464068104908400E494860084653
:1011500000680E4908400B4908600846006820F402
:10116000802008600846406820F4FE0048604FF484
:101170001F008860FFF715FF4FF00060044908600A
:1011800010BD0000001002400000FFF8FFFFF6FE57
:1011900008ED00E0F0B50C46154600220021068C53
:1011A0004FF6FE773E400684028B018C4FF60C769C
:1011B00032407E1C06EA03162E433243104EB042E4
:1011C0000ED0104EB0420BD0B0F1804F08D00E4E72
:1011D000B04205D00D4EB04202D00D4EB04206D105
:1011E0004FF6FD76314044F00106314305E04FF6FD
:1011F000F576314044F00106314302830184F0BDAD
:10120000002C014000340140000400400008004070
:10121000000C0040F0B50C461546002200210026C7
:10122000078C4FF6EF7C07EA0C070784028B018CD2
:101230004FF6FF7707EA041640F6FF473A404FF6AD
:10124000FF7707EA03373A434FF6FF7707EA0527A8
:101250003A43114FB8420ED0104FB8420BD0B0F104
:10126000804F08D00E4FB84205D00E4FB84202D082
:101270000D4FB84206D14FF6DF77394046F01007E0
:10128000394305E04FF65F77394044F010073943A2
:1012900002830184F0BD0000002C014000340140B5
:1012A0000004004000080040000C0040F0B50C466F
:1012B0001546002200210026078C4FF6FF6C07EA36
:1012C0000C070784828B018C4FF6FF7707EA042610
:1012D0004FF60C773A404FF6FF7707EA03172F4394
:1012E0003A43114FB8420ED0104FB8420BD0B0F174
:1012F000804F08D00E4FB84205D00E4FB84202D0F2
:101300000D4FB84206D14FF6FF57394046F480776B
:10131000394305E04FF2FF57394044F480773943B1
:1013200082830184F0BD0000002C014000340140A4
:101330000004004000080040000C0040F0B50C46DE
:101340001546002200210026078C4EF6FF7C07EA96
:101350000C070784828B018C4FF6FF7707EA04366F
:1013600040F6FF473A404FF6FF7707EA05273A4332
:101370004FF6FF7707EA03373A43114FB8420ED0D2
:10138000104FB8420BD0B0F1804F08D00E4FB8428A
:1013900005D00E4FB84202D00D4FB84206D14DF6DF
:1013A000FF77394046F48057394305E047F6FF5749
:1013B000394044F48057394382830184F0BD0000F2
:1013C000002C0140003401400004004000080040AF
:1013D000000C0040044800880348008820F0010009
:1013E000014908807047000010040040044800884C
:1013F0000348008820F00100014908807047000080
:101400001008004010B50121374800F0F6F9002817
:1014100068D00121344800F0BCF80020FFF7A4FD9B
:1014200000B2324908800120FFF79EFD404200B221
:101430002F4908802F4800882C490988084400B2A9
:101440002C4908802C48008829490988084400B2A2
:10145000294908802948B0F900102648B0F9000051
:10146000FFF748FC264908602448B0F900102248DC
:10147000B0F90000FFF73EFC2249086020480168EF
:101480001A48B0F90000FFF709FB1F4908601D4822
:1014900001681748B0F90000FFF700FB1B4908601E
:1014A00019480068FFF70EFC1749086017480068E4
:1014B000FFF708FC15490860154A514212480068B8
:1014C000FFF70DFC10490860114A51420F480068AF
:1014D000FFF705FC0D490860084601680A480068E6
:1014E000FFF7D4FD10BD00000010004006000020F2
:1014F0000800002002000020040000200C00002052
:101500004C00002050000020440000204800002033
:101510003CF6FFFF1FB501211020FFF77BFC41F6D1
:101520001F40ADF804006320ADF8080001A9104881
:1015300000F066FB01210E4800F028F80122114658
:101540000B4800F0CAF936208DF8000004208DF811
:10155000010002208DF8020001208DF8030068468A
:10156000FFF778FB0121024800F016F81FBD0000CC
:101570000010004021B1028842F08002028004E0A5
:1015800002884FF67F731A4002807047CA43028276
:101590007047CA430282704721B1028842F00102BB
:1015A000028004E002884FF6FE731A400280704702
:1015B00031B1B0F8442042F40042A0F8442005E0E4
:1015C000B0F84420C2F30E02A0F844207047000097
:1015D00010B504466848844208D10121C014FFF7C1
:1015E00049FC0021E014FFF745FCC4E0B4F1804F52
:1015F00008D101210846FFF71DFC00210120FFF75B
:1016000019FCB8E05D48844208D101210220FFF7AF
:1016100011FC00210220FFF70DFCACE05848844289
:1016200008D101210420FFF705FC00210420FFF769
:1016300001FCA0E05348844208D101210820FFF7B3
:10164000F9FB00210820FFF7F5FB94E04E488442A7
:1016500008D101211020FFF7EDFB00211020FFF73A
:10166000E9FB88E04948844208D101212020FFF7A6
:10167000E1FB00212020FFF7DDFB7CE044488442B1
:1016800008D101214014FFF7F5FB00216014FFF79A
:10169000F1FB70E03F48844209D10121C804FFF703
:1016A000E9FB00214FF40020FFF7E4FB63E03A4838
:1016B000844209D101210805FFF7DCFB00214FF42A
:1016C0008010FFF7D7FB56E03448844209D101214E
:1016D0004805FFF7CFFB00214FF40010FFF7CAFBCE
:1016E00049E02F48844208D101214020FFF7A2FBA6
:1016F00000214020FFF79EFB3DE02A48844208D1AC
:1017000001218020FFF796FB00218020FFF792FB4C
:1017100031E02548844208D101218015FFF78AFB7A
:101720000021A015FFF786FB25E02048844209D15F
:1017300001210804FFF79EFB00214FF48030FFF7E2
:1017400099FB18E01A48844209D101214804FFF7A7
:1017500091FB00214FF40030FFF78CFB0BE01548A4
:10176000844208D101218804FFF784FB00214FF453
:101770008020FFF77FFB10BD002C014000040040DB
:1017800000080040000C0040001000400014004021
:1017900000340140004C0140005001400054014021
:1017A00000180040001C00400020004000400140A4
:1017B0000044014000480140F0B50C4615461E4665
:1017C0000021002200230189028B038C4FF6F87759
:1017D000394021434FF6FC473A4040F201173A4363
:1017E0004FF6DD773B404FF6FF7707EA06172F43AA
:1017F0003B43018102830384F0BD30B502460020E3
:1018000000230024158A05EA0103958905EA0104ED
:1018100013B10CB1012000E0002030BD70B50546C9
:101820000C46244885420ED0234885420BD0B5F1A2
:10183000804F08D02148854205D02148854202D0FA
:101840002048854200D100E000BF208850B923899C
:10185000A28861882846FFF79DFCE188284600F0B1
:10186000A2F925E0208804280AD12389A28861886A
:101870002846FFF7CFFCE188284600F09DF917E0E5
:10188000208808280AD12389A28861882846FFF782
:101890000DFDE188284600F09CF909E02389A28823
:1018A00061882846FFF74AFDE188284600F09AF94A
:1018B00070BD0000002C01400034014000040040D5
:1018C00000080040000C00400021018041800121FF
:1018D00081800021C180018170471AB183890B4347
:1018E000838102E083898B438381704770B5002434
:1018F00000220023058C4FF6FE7635400584028CCD
:101900008388048B4FF68F752C40B51E2C400D88B4
:101910002C43751E2A400D892A434D882A43144DB5
:10192000A8420BD0134DA84208D0134DA84205D0B1
:10193000124DA84202D0124DA84213D14FF6F775AE
:101940002A404D892A434FF6FB752A408D882A4349
:101950004FF6FF652B404FF6FF552B408D892B43EB
:10196000CD892B4383800483CD888586028470BD16
:10197000002C01400034014000400140004401407F
:10198000004801400A460021018B4FF6F7731940C9
:10199000114301837047000070B50024002200232A
:1019A000058C4FF6EF7635400584028C8388048BD6
:1019B00048F6FF752C404FF6FF452C400D884FF63A
:1019C000FF7606EA05252C434FF6DF752A400D8980
:1019D00006EA05152A434D8806EA05152A43154DE2
:1019E000A84202D0144DA8421DD14FF67F752A405F
:1019F0004D894FF6FF7606EA05152A434FF6BF7567
:101A00002A408D8806EA05152A434FF6FF352B40FC
:101A10004FF2FF752B408D8906EA85052B43CD8952
:101A200006EA85052B4383800483CD8805870284DD
:101A300070BD0000002C0140003401400A46002126
:101A4000018B4FF2FF7319404FF6FF7303EA022335
:101A5000194301837047000070B500240022002361
:101A6000058C4FF6FF6635400584028C8388848B95
:101A70004FF68F752C404FF6FC752C400D882C438B
:101A80004FF6FF552A400D894FF6FF7606EA0525E9
:101A90002A434D8806EA05252A43154DA84202D05F
:101AA000144DA8421DD14FF2FF752A404D894FF6C3
:101AB000FF7606EA05252A434FF6FF352A408D8832
:101AC00006EA05252A434EF6FF752B404DF6FF75B5
:101AD0002B408D8906EA05152B43CD8906EA0515AD
:101AE0002B4383808483CD888587028470BD00006A
:101AF000002C0140003401400A460021818B4FF642
:101B0000F7731940114381837047000070B50022BC
:101B100000230024058C4EF6FF7635400584038CA7
:101B20008488828B48F6FF752A404FF6FF452A408D
:101B30000D884FF6FF7606EA05252A434DF6FF7518
:101B40002B400D8906EA05352B434D8806EA0535FD
:101B50002B430B4DA84202D00A4DA84208D14BF6A8
:101B6000FF752C408D894FF6FF7606EA85152C43CC
:101B700084808283CD88A0F84050038470BD00002B
:101B8000002C0140003401400A460021818B4FF2B5
:101B9000FF7319404FF6FF7303EA02231943818351
:101BA000704781847047028B4FF6F3731A400283AB
:101BB000028B0A4302837047028B4FF2FF331A40B5
:101BC0000283028B4FF6FF7303EA01231A43028359
:101BD0007047828B4FF6F3731A408283828B0A43DD
:101BE00082837047828B4FF2FF331A408283828B4D
:101BF0004FF6FF7303EA01231A4382837047000004
:101C0000002202881D4B98420ED01D4B98420BD0EB
:101C1000B0F1804F08D01B4B984205D01A4B984228
:101C200002D01A4B984204D14FF68F731A404B885A
:101C30001A43174B984207D0164B984204D04FF6E0
:101C4000FF431A40CB881A4302808B8883850B8818
:101C500003850A4B98420BD0094B984208D00E4B93
:101C6000984205D00D4B984202D00D4B984201D1BD
:101C70000B7A03860123838270470000002C014009
:101C8000003401400004004000080040000C004007
:101C9000001000400014004000400140004401409A
:101CA000004801404FF6FF71818000210180C18012
:101CB000418001727047000010B5002440F22551A8
:101CC000054800F034F830B1034800F0EBF8C4B236
:101CD000204600F003F810BD0038014010B504465E
:101CE00000BF8021044800F015F80028F9D02146F3
:101CF000014800F0DCF810BD0038014021B18289B4
:101D000042F40052828104E082894DF6FF731A404A
:101D10008281704702460020B1F5007F00D100BFEC
:101D200013880B400BB1012000E00020704770B514
:101D30000246002400230025002040F66A16B14226
:101D400000D100BFC1F3421501F01F03012606FABE
:101D500003F3012D02D19689334006E0022D02D112
:101D6000168A334001E0968A33400C12012606FAA7
:101D700004F41688344013B10CB1012000E00020B7
:101D800070BDF0B50346002400260025002040F673
:101D90006A17B94200D100BF1846C1F3421401F0DE
:101DA0001F06012707FA06F5012C01D10C3004E0CB
:101DB000022C01D1103000E014301AB107682F4313
:101DC000076002E00768AF430760F0BD2DE9F04708
:101DD00086B005460E460024A24600BFA146002755
:101DE000B08900B100BF2F462C8A4CF6FF7004402A
:101DF000F08804432C82AC894EF6F3100440B0887E
:101E000031890843718908430443AC81AC8A4FF699
:101E1000FF400440B0890443AC8201A8FFF73AF8C0
:101E20001F48874202D1DDF810A001E0DDF80CA0C8
:101E3000A88900F4004040B10AEBCA0000EB0A1088
:101E400031684900B0FBF1F807E00AEBCA0000EB8B
:101E50000A1031688900B0FBF1F86420B8FBF0F09B
:101E600004012009642101FB1089A88900F40040C5
:101E700040B1322000EBC900B0FBF1F000F00700E8
:101E8000044308E0322000EB09106421B0FBF1F0BC
:101E900000F00F0004432C8106B0BDE8F08700007D
:101EA0000038014001468888C0F308007047C1F33C
:101EB00008028280704700BFFEE700000FB4054BA8
:101EC00010B503A9044A029800F018F810BC5DF898
:101ED00014FB00001D2100083C00002002E008C89F
:101EE000121F08C1002AFAD170477047002001E094
:101EF00001C1121F002AFBD1704700002DE9FF4FDE
:101F000089B09B460446002506E025280BD05A469A
:101F10000B999047641C6D1C20780028F5D10DB0FA
:101F20002846BDE8F08F0027B8460122474900E067
:101F3000074314F8013F203B02FA03F00842F7D1AF
:101F400020782E2819D114F8010F47F004072A2809
:101F50000ED06FF02F022078A0F1300109290CD8A3
:101F600008EB880102EB410100EB0108641CF2E779
:101F70000A98641C50F8048B0A9020780028CED070
:101F8000642808D0692806D075281ED05A460B99B7
:101F900090476D1C58E00A994FF00A0901C90A914F
:101FA000002802DA40422D2102E0390504D52B2118
:101FB0008DF82010012103E0F90704D02021F7E774
:101FC0008A4608AE0DE00021FAE70A994FF00A09A7
:101FD00001C90A91F7E74946FEF7BCFA303106F825
:101FE000011D0028F7D1ADEB060000F120097807AC
:101FF00001D44FF00108C84502DDA8EB090000E05C
:1020000000208046002706E008A85A46C05D0B99CC
:1020100090476D1C7F1C5745F6DB04E030205A4684
:102020000B9990476D1CB8F10001A8F10108F5DC8F
:1020300005E016F8010B5A460B9990476D1CB9F153
:102040000001A9F10109F4DC641C65E7092801001D
:1020500010B50220FEF7DAFB00F01CF80220FEF7B4
:1020600091FD0120FEF78EFDFEF772FD4FF4E13089
:1020700000F0E4F8FEF79EFDFEF75AFB00214FF456
:102080003460FEF76BFBFEF7D7FBFEF723FCFFF790
:1020900041FA10BD10B50E4800680E49B0FBF1F0D2
:1020A000C4B26FF00400FFF72FF8E11704EB517191
:1020B000C910094A11701046007800EB4001C1EBCD
:1020C000C0104FF6FF7101EAC0000449088010BD3E
:1020D0001000002040420F00380000203A0000208D
:1020E00001460D4A12884A434FF0E0235A6100220C
:1020F0009A6101221A6100BF4FF0E022106900F0DE
:1021000001021AB100F48032002AF5D000224FF00B
:10211000E0231A619A6170473A00002000BF054A27
:10212000128802F04002002AF9D0C2B2014B1B1DF6
:102130001A80704700380140FFF78AFF4DE02748BA
:10214000B0F900202648B0F9001026A0FFF7B6FE2F
:102150002848B0F900202848B0F9001027A0FFF760
:10216000ADFEC820FFF7BCFF0120FEF73BFDA8B184
:1021700026A0FFF7A3FE2948006808B9012000E067
:1021800000202649086026480078401C2449087031
:1021900008460078042801DB0020087020480078F9
:1021A000012807D11E201F4908804FF4FA501E490C
:1021B000088012E01A480078032807D10A2019493C
:1021C00008804FF47A701849088006E014201549F9
:1021D000088041F2883014490880B0E708000020E8
:1021E00006000020764C3A2564092076523A256490
:1021F0000D0A00000400002002000020704C3A2567
:1022000064092070523A25640D0A00004B6579205C
:1022100070757420646F776E210D0A008C812142E5
:10222000000000200A0000200C00002001460029C8
:1022300001DA484200E008467047000010B586B059
:102240000446012144F20400FEF704FE4FF400703E
:10225000ADF8140003208DF8160018208DF8170033
:1022600005A91C48FEF784FB4FF48060ADF814000C
:1022700004208DF8170005A91648FEF779FB019494
:102280000020ADF80800ADF80A00ADF80C00ADF87C
:1022900010000C20ADF80E0001A90F48FFF796FDC5
:1022A000002240F225510C48FFF76BFD01210A483E
:1022B000FFF724FD25208DF8000000208DF8010097
:1022C00001208DF802008DF803006846FEF7C2FC7D
:1022D00006B010BD0008014000380140FC22000893
:1022E0000000002074000000DC1E000870230008BD
:1022F0007400002004040000EC1E00080000000030
:1023000000000000000014008813000000A24A042E
:102310000000000000000000010203040607080995
:10232000000000000102030401020304060708097B
:102330000204060800000000000000000000000089
:10234000000000000000000000000000000000008D
:10235000000000000000000000000000000000007D
:10236000000000000000000000000000000000006D
:0400000508000131BD
:00000001FF
